:020000041000EA
:1000000000B5324B212058609868022188439860DF
:10001000D860186158612E4B002199600221596106
:100020000121F02299502B49196001219960352056
:1000300000F044F80222904214D00621196600F024
:1000400034F8196E01211966002018661A6600F04E
:100050002CF8196E196E196E052000F02FF8012189
:100060000842F9D1002199601B49196000215960AB
:100070001A491B48016001219960EB211966A021F2
:10008000196600F012F800219960164914480160C1
:100090000121996001BC002800D000471248134993
:1000A000086003C880F30888084703B5996A0420EC
:1000B0000142FBD001200142F8D103BD02B5186610
:1000C0001866FFF7F2FF186E186E02BD00000240BE
:1000D000000000180000070000035F00212200005C
:1000E000F4000018222000A00001001008ED00E03C
:1000F00000000000000000000000000074B24E7A12
:1001000000200420F7010010CB010010CD010010E9
:10011000C9010010C9010010C9010010C901001077
:10012000C9010010C9010010C9010010CF01001061
:10013000C9010010C9010010D1010010D301001045
:10014000C1010010C1010010C1010010C101001067
:10015000C1010010C1010010C1010010C101001057
:10016000C1010010C1010010C1010010C101001047
:10017000C1010010C1010010C1010010C101001037
:10018000C1010010C1010010C1010010C101001027
:10019000C1010010C1010010C1010010C101001017
:1001A000C1010010C1010010C1010010C101001007
:1001B000C1010010C1010010C1010010C1010010F7
:1001C000EFF30580103800BE00BE00BE00BE00BECA
:1001D00000BE00BEF2EB88719C6B0010BC6B00107F
:1001E0003802001090A31AE700201E49086006C8D4
:1001F00081F3088810471C480068002801D00020BF
:10020000F3E70DA40ECC002902D000F012F8F9E7B4
:100210001649174A002000E001C19142FCD115495E
:100220008847154988471549884700BEFDE701C939
:1002300001C29A42FBD37047BC6B0010C000002083
:10024000301000202C7B001000000420000004204F
:100250002C7B00100010042000100420000000007F
:100260007047000008ED00E0000000D030100020D2
:10027000481C0020313D001081020010293D001073
:10028000F0B5D6464F464646C0B503F075FE192078
:1002900000F060F8D02580232D069B040F206B62B0
:1002A00000F058F880231B02AB62002201210F20CE
:1002B00000F03EF81B4B00279A461B4B99461B4B00
:1002C000984680246E681420240200F047FE2642DF
:1002D000F7D000226B68234213D1002AF1D001230A
:1002E0005F4080239B04002F18D051466B6140462D
:1002F00003F012FF6E68142000F030FE2642E8D1B1
:10030000DFE76E68142000F029FE01222642E1D1C9
:1003100001235F4080239B04002FE6D14946AB6157
:10032000E5E7C046906500109465001098650010E0
:10033000064B8000C3181B68C90092000A435A404C
:100340000C231340024A80180360704704C0014028
:1003500004D001400123D0228340120693629361AE
:10036000084A83009A1811684022514080320A409E
:100370000549C0005B181A60044BC0180523436090
:100380007047C04604C0014004D001400040014015
:100390008023DB051868000F7047C0460FB400B516
:1003A000084883B003F036FE049B002B07D005A954
:1003B0001800019103F09CFC034803F02BFE012080
:1003C00003F0AEFCA06500106466001070B58C46AA
:1003D0001600EFF3108472B60F490B68002BFCD0A7
:1003E000BFF35F8F6346DB08C5180722C05C634616
:1003F0001A40012393401A000240034207D11843D8
:100400002870BFF35F8F0A6084F3108870BD614667
:100410003000FFF7C3FFC0462C0100D0F8B5CE4630
:1004200047468C4680B51C00EFF3108872B61C4915
:100430000B68002BFCD0BFF35F8FA24221D80723AB
:10044000994602E00132944218D3494601261140F0
:100450008E40D308C718C35C1E42F3D1100033434B
:100460003B70BFF35F8F00220D4B1A6088F310883A
:1004700000280EDBC0BCB946B046F8BD01204042A2
:10048000EFE7BFF35F8F00230B6088F31088012034
:1004900040426346002BEDD00898FFF77FFFC0462F
:1004A0002C0100D0044A1078431CDBB2172B00D972
:1004B000102313707047C046400F002000B5054B55
:1004C00083B00100009318221F230348FFF7A6FF03
:1004D00003B000BDB06500108C1700200021044B54
:1004E000044ABFF35F8F02C39342FAD17047C046FC
:1004F000000100D0800100D0084B094A1360094A6E
:100500001360094A1360094A1360094A1360094AD3
:100510001360094A1360094A136070478080808025
:1005200000E400E004E400E008E400E00CE400E0A3
:1005300010E400E014E400E018E400E01CE400E053
:100540001F2318401E3B8340002905D0C021044AC8
:100550004900535013607047802201498B50FAE7DD
:1005600000E100E001228240034B1B6813405A1E49
:100570009341D8B27047C04600E100E001238340B8
:10058000014A13607047C04600E200E0054B10309E
:100590009B688000C358044A00209B1A47229A4255
:1005A0004041704700ED00E0440F002010B5EFF32C
:1005B000108C72B60F4A1368002BFCD0BFF35F8F0C
:1005C0000D4B10309B6880001B580C4A934201D0A1
:1005D00099420CD1084B9B681950BFF35F8FBFF352
:1005E0005F8F0022034B1A608CF3108810BD00F05F
:1005F000E9FFC046240100D000ED00E0C101001079
:10060000F0B5DE4657464E464546E0B58B4685B0CA
:10061000EFF3108872B616005B4A1368002BFCD00B
:10062000B246BFF35F8F002558494D57002D00DAC1
:10063000A8E06B00564A01935B199B00D418A77978
:1006400010300F7053498000896884460F58B91ADA
:10065000472933D8012039008143CE79564500D847
:100660006AE0A1465646039307E05800C018800090
:100670001018C479B4424DD901000623CB56002B83
:10068000F3DA081D4C46B24681460293424B4E4671
:10069000043CA41B2405414E640D34438C808D71B1
:1006A00001994919890052189380029B3C49937122
:1006B0005346D3715B461160936017E039498F420E
:1006C00060D139490127D15238490233D31804394E
:1006D000CB1A324A1B055B0D13436380344BE67122
:1006E000A380FF23A3715B462743A3606246294B87
:1006F0009B689F50BFF35F8FBFF35F8F0022224B39
:100700001A6088F3108805B0F0BCBB46B246A94613
:10071000A046F0BDB2460E1D4C46B14688880293F5
:10072000039B4005001504334844D318C31A1B0526
:100730001A485B0D0343AAE79E1CB14691444E46FE
:100740000F001C4DBF1A7F417D432D0D164FA57123
:10075000D752164F0433043FD318BF1BCB1A3F05A3
:10076000043B7E0D1B050D4F5B0D3E431F4353465F
:10077000E3715B46A3600A4BA780668004432700B1
:100780000B60B3E700F01EFF240100D0411C0020E5
:10079000440F002000ED00E001BD000000E0FFFF7D
:1007A00001488047C101001000A1FFFF8C0F00200D
:1007B00001BDFFFFAAAA00000123034370B59C46B8
:1007C000EFF30581EFF3108572B6274A1368002B0B
:1007D000FCD0BFF35F8F254A0400254BA41A644167
:1007E00063431B0D234C8900A6685BB276586645AF
:1007F00024D006215156994224D0122151569942B3
:100800002AD01E215156994228D02A215156994268
:1008100026D036215156994224D0422151560524E2
:10082000994210D0144A117813708171BFF35F8F11
:1008300000220D4B1A6085F3108870BDA2680F4C22
:100840005450EFE700246100091989005218FF2174
:1008500091710B499180E5E70124F4E70224F2E766
:100860000324F0E70424EEE7240100D0440F002025
:10087000AAAA000000ED00E0411C0020C101001008
:1008800001BDFFFF00B5074B83B0010000930022BC
:1008900005230548FFF7C2FD002801DB1F23181AB6
:1008A00003B000BDCC650010451C0020024BC918E8
:1008B000890001607047C0464000003470B5114C9B
:1008C000114DAC420FD2FF262368002B0CD0FFF74E
:1008D000E9FD01002000FFF7E9FFA680BFF35F8F6D
:1008E0000834AC42F0D370BDFFF7DCFD01002000FE
:1008F000FFF7DCFF2671BFF35F8F0834AC42E3D310
:10090000F1E7C046281000203010002010B5040088
:10091000FFF7C8FD01002000FFF7C8FFFF23237188
:10092000BFF35F8F10BDC04610B504000120FFF774
:10093000C5FD034BC01880002060BFF35F8F10BD62
:1009400040000034034BC91889000160BFF35F8F7A
:100950007047C046400000340A4B1968EFF310801E
:1009600072B60A68002AFCD0BFF35F8F1B68BFF322
:100970005F8F00221A6080F3108840BF00200021A2
:100980007047C046201C0020F0B5DE4657464E4654
:100990004546E0B585B0EFF3058303221A40B34B1B
:1009A00091005F58012393409B4602925A46884625
:1009B000AF4B1A60AF4B03935B46AF4843630823CA
:1009C000FE5E002E37DABB881BB2002B00DBA4E0F2
:1009D000BB79002B00D0E5E00823F95E002920DB7D
:1009E0004B007A695B18DB00D3189D68DC686B1CD0
:1009F00000D104E1A04801004144826A0B69AE1AAB
:100A00009B1A9E4215D30123026A029883401A4220
:100A10000FD0994800F0C0FB8C4202DCCCD185425B
:100A2000CAD940BF05B0F0BCBB46B246A946A046F5
:100A3000F0BD0D61EDE77A69730091469B19DB000B
:100A400099444B469C68DD6800F0A6FB8D42BADCF9
:100A500000D1F6E0002D00DADBE04A464B46526951
:100A60001B699246039A934200D1CCE04A46082182
:100A7000785E5288000451461043984700900191D7
:100A80000099019A0B00134300D1C2E013000A0041
:100A9000002B00DBD9E020002900801A99414B4649
:100AA0009860D96000229B5E002B00DA8BE75D0026
:100AB0007C69EA18D200A21800949468D268A24611
:100AC0008A4200DD7FE702D1844200D97BE7082417
:100AD000A4463B81BC44009C00972F006546B44669
:100AE0003E0006E05E00F218D200A2189768D268B5
:100AF000BA468A4207DC00D1B4E0F318DB00E518FF
:100B0000E35E002BEEDA66464A46009F13802E8095
:100B1000BB881BB2002B00DA5AE73A69EFF3108169
:100B200072B61368002BFCD0BFF35F8F0123BE8821
:100B30005B42BB8036B23B69BFF35F8F00221A6015
:100B400081F31088002E00DA42E73B0008333A00B8
:100B500099467D6973009B190824115FDB004846A4
:100B6000EB18002913DB9C680093A446DC6806E0C0
:100B7000A34240D00023F95E3800002906DB4F0075
:100B80007F18FF00EF19FB68A342F1DD009B068090
:100B900000201E5E1980002EDCDA1700BB79002BC6
:100BA00000D119E70023BB710823F95E4B1C00D16B
:100BB00037E73D000835AC467C6903E084464B1CB2
:100BC00000D109E74B005B18DB00E0180A00E15E8A
:100BD00043881BB2002BF1DA01256D42EE178560C8
:100BE000C66008257B5F9342E9D0634619803B8944
:100BF00003803A81E3E7BB686345BBD9C6E7631C62
:100C000000D0F7E605E7534650461B699847002891
:100C100023D14B461B883A693B81EFF3108372B6B0
:100C200011680029FCD0BFF35F8F49467A880A809B
:100C30003A697E80BFF35F8F0021116083F31088D3
:100C4000C1E6844200D805E7BDE60B4800F0A4FAEF
:100C5000009B019CC018614121E753460CCB0092D8
:100C600001930DE7824500D847E74CE7041C0020BC
:100C70003C700540890900100040054070B52D4CBE
:100C80002569002D04D00A212B48FFF70FFE70BD07
:100C90002A4E0321294800F075FAE660FFF702FCAE
:100CA000274B0322C018D02322701B061B6801218A
:100CB0006370244B8000A3600F23206102206380B7
:100CC00063694942A18019800231198647311D8329
:100CD000585218315A5275325C39995218320131D2
:100CE000995218320131995218320131995208350E
:100CF00018329D52023118329952183201319952EC
:100D00001832013199521832013199521832013199
:100D100099521832013199520B4B0C49DC60013069
:100D20003562FFF743FC01210320FFF709FC084B64
:100D30001D60A8E7B00F0020201C002000400540E7
:100D400040000034FFFF1000041C0020890900103F
:100D50003860054000487047B00F0020F8B51F000C
:100D600008AB1B7804001600002B07D100F01CFA1A
:100D700032003B00121A8B41002B51DB2269EFF34A
:100D8000108C72B61368002BFCD0BFF35F8F022368
:100D9000E15E256900293ADB4B0060695B18DB00E6
:100DA000C218C35A6380BFF35F8F00232B608CF39C
:100DB0001088069B9660D7601361079B5361538828
:100DC00001335B045B0C181C002B1ED083B25080D7
:100DD000080418432569EFF3108672B62B68002BC0
:100DE000FCD0BFF35F8FA3881380A1802369BFF37A
:100DF0005F8F00221A6086F31088237801329A40B0
:100E00000849E3685B181A60F8BD0120DEE7BFF30C
:100E10005F8F00232B608CF3108801204042F3E7A2
:100E20000020F1E73C20000070B582B000920193F1
:100E300001000269EFF3108472B61368002BFCD036
:100E4000BFF35F8F0223C85E0D6900283FDB4A694C
:100E5000430016001B18DB00D218F35A4B80BFF377
:100E60005F8F00232B6084F31088069B1361079B20
:100E70005361009B019C9360D460538801335B04F1
:100E80005B0C1D1C002B20D0ACB203045580234307
:100E90000D69EFF3108C72B62C68002CFCD0BFF3F8
:100EA0005F8F8C88148088800A69BFF35F8F002071
:100EB00010608CF310880A7801309040CA680849A5
:100EC00052181060180002B070BD0125DCE7BFF3B6
:100ED0005F8F00232B6084F31088013BF2E7C0464C
:100EE0003C20000010B543890A1493421ADD5300D8
:100EF0009B184269DB00D3180469EFF3108C72B6BB
:100F00002268002AFCD0BFF35F8F5A88090494B28C
:100F1000090C8A4208D00369BFF35F8F00221A6070
:100F20008CF31088002010BD094A22435A80012307
:100F300002698371BFF35F8F002111608CF3108809
:100F4000027804499340C268012052181360EAE70E
:100F50000080FFFF3C20000040787047F0B5C64697
:100F600000B582B0040000F01FF9FA2206000F005D
:100F7000200000230021920001F09AFA80197941A3
:100F800004000D1E02DA01242E4D6442062676422C
:100F9000F71736196F41AF4214D811D000F004F999
:100FA00032003B00121A8B41002B15DC002B46D07F
:100FB0002000290000F002F902B080BCB846F0BD64
:100FC000A642EBD90026002700F0EEF832003B00E5
:100FD000121A8B41002BE9DD00F0E6F832003B00ED
:100FE000121A8B41002B0ADB00230193164B3200AF
:100FF000009316483B00FFF717FF0130D8D00023BD
:101000003900B0469C46124A1248536A994204D8A5
:10101000966A4645CCD29942CAD10668EFF310874A
:1010200072B63368002BFCD0BFF35F8F0368BFF349
:101030005F8F66461E6087F3108820BFE5E7002AB1
:10104000B6D0C9E7FFFFFF7F59090010B00F00209D
:1010500000400540201C0020F0B5CE46474680B534
:1010600004000D0085B0EFF305838946002B32D1D3
:10107000404E336883422AD03F4FFB683A78984607
:101080001800039200F088F8039A131D42469B0053
:101090009B5822001B1A9C462B00121A8B411900E8
:1010A000002310008B4225DC22D020BF334B586A2E
:1010B00048452BD3401B9A6A431E98410023A24205
:1010C0005B41184305B0C0BCB946B046F0BD73687B
:1010D0008B42D1D1E9E7294900204B6AAB42F1D3D9
:1010E0008A6A5B1B591E8B41A24240411843E9E7C3
:1010F0008445DAD900F058F822002B00121A8B41EF
:10110000002B05DA1D4A536A4B4529D20020D9E746
:10111000002301931A4B2200009338002B00FFF7A5
:1011200083FE0028EEDD154B30C65A6A4A4515D3BA
:101130009B6AA34210D301003800FFF7D3FE0F4A89
:101140000020536A4B45BDD3926A5B1B591E8B41ED
:10115000A24240411843B5E74A45ECD120BFEAE737
:101160000020926A5B1BA24240415A1E93411843E1
:10117000A8E7C046A80F0020B00F0020004005409F
:101180005909001010B5024A0248FFF71FF910BDB7
:10119000E8650010901700200300416A0A00986A71
:1011A000596A8A42FAD17047034B596A0A00986A11
:1011B000596A9142FAD1704700400540064A536A85
:1011C0009942FCD807D1044B02E05A6A914202D1FD
:1011D0009A6A9042F9D8704700400540F8B5DE465B
:1011E0004E4645465746E0B505008B4618000A991D
:1011F000914600F039FB0A9B6C001E026419304BCB
:10120000A400E418636880469E4200D966602F1FE0
:10121000FBB29A46012B2FD9C0238022294FAD0063
:101220009B0179591201E3181A6000291BD14B4622
:1012300022685B015340E022134080225201A21831
:1012400013605346012B2FD9802380229B01E31882
:1012500012011A60434666607B51F0BCBB46B24641
:10126000A946A046F8BD786900F0FEFA01304300B7
:101270001B18033BFDD2DAE75B46012BCCD1C02320
:1012800003229B01E3181A60023AA3681A42FCD0B9
:101290004A46236852015A40E023134080225201FB
:1012A000A218084F1360AD0058460323216841403F
:1012B0000B40136001228240A3681A42FCD0C3E7AE
:1012C0000080004094170020F0B5D6464F464646B1
:1012D000440098462418324BA400E41863688A46F8
:1012E0009146C0B5FF2B02D880235B006360061FC8
:1012F000F6B2012E2FD9C02380222A4F85009B01F0
:1013000079591201E3181A6000291BD14B46226853
:101310005B015340E022134080225201A218136067
:10132000012E30D9802380229B01E31812011A601C
:1013300080235B00636043467B51E0BCBA46B14604
:10134000A846F0BD786900F08FFA013043001B1801
:10135000033BFDD2DAE75346012BCCD1C023032255
:101360009B01E3181A60023AA3681A42FCD04A466D
:10137000236852015A40E023134080225201A218F0
:10138000084F1360850050460323216841400B40FD
:10139000136001228240A3681A42FCD0C2E7C04613
:1013A0000080004094170020014B8000C058704717
:1013B00094170020F0B5C646040000B52348160077
:1013C00098460D0000F050FA0100300000F04CFA91
:1013D0004346069A1B04120313439C4623680600E7
:1013E000002B22DB1A4B1B48E218531E9A41802324
:1013F0005242120B9B011203D218174B1A60174B63
:101400001A60130001688B43FBD12122144B256025
:10141000E318A6601A602268002AFCDA6246E260DD
:1014200008221A6080BCB846F0BD3F2322681340F2
:10143000AB42D7D1A3681B051B0D8342D2D1EE224C
:10144000E368D20213406345CCD1EBE7001BB70041
:101450000040FDBF08C0004000E0004000F0004038
:101460000430000010B580241C4BE4051C600028EB
:101470001AD001231A4C18431A4BDC611A4C444011
:101480001C62596298628021144BC9051960174883
:1014900017490860E021C9041960002A07D1802299
:1014A000144B12061A6010BD0E4BD861EBE75301C6
:1014B0009B1A9B009A18802312015B049A4209D25E
:1014C00013000D490B60074B5A608022094BD2056F
:1014D0001A60E8E7094B1A00F3E7C04600B0054080
:1014E000D3C007B0008005402D3FF84FFCFF01003E
:1014F0000820014000A00540F41B0020FFFFFF0072
:101500008023024A9B000B43D36270470080054052
:10151000002310B50100988A1B8B984710BDC04668
:10152000162310B5010018885B88984710BDC04687
:10153000F8B54746CE4680B50F1E18D014239946FD
:10154000043304000025012698464B46188843467C
:1015500021681B88984701C4431E98410135064005
:10156000AF42F2D13000C0BCB946B046F8BD01264A
:10157000F8E7C046002370B504000D00988A0549BD
:101580001B8B984703000020002C01DB0130A0409A
:101590002900984755420000AA23064A1B01136000
:1015A0008D235B00D3600449044B19605368002B02
:1015B000FCDA70470040024000B0FA0000600240D0
:1015C0007047C04610B50148FEF7E8FE0C660010F3
:1015D00070B5074D074EB54209D20024013E761B77
:1015E000B608013608CD01349847B442FAD170BD2F
:1015F000506500108C650010054B064A06491A60BC
:10160000064A074B1A6010000B689843FBD17047DD
:1016100000E00040BFCDFBFE08C00040FE7F3C0064
:1016200000F00040044BDB6C002B03D18022034B05
:10163000D2021A607047C046000011504C20115071
:10164000044A054B1A60054A1368DB018033FBD15D
:101650007047C046FFFFFF0100F0004008C0004097
:101660004022034B9A675A671A67DA667047C0468A
:1016700000F0014010B5FEF731FF10BD70B52749ED
:10168000274E284D761AB4082200302C00D930227B
:101690002800920000F07EFF2F2C3BD823002A3B2D
:1016A000214A052B1BD93020AE197107001B2600DB
:1016B000CB0F002902DAA1006A50661CC01AE31899
:1016C0009B004108EB18C900C9181A605A6008331A
:1016D0008B42FAD1012303421CD098438419A30002
:1016E000EA50631C2F2C15D09B00EA50A31C2E2C13
:1016F00010D09B00EA50E31C2D2C0BD09B00EA502D
:10170000231D2C2C06D09B00EA50631D2B2C01D0EE
:101710009B00EA50054B9D6070BDC0460001001063
:10172000C001001000000020C101001000ED00E029
:10173000002310B5294C82B0A367FFF72DFF0122CB
:10174000274B1A60636C012BFCD10322254B1A60D6
:10175000224A936B012BFCD1013300930121224AD1
:1017600022480433FFF726FE052301210093204A77
:101770002048FFF71FFE0022022104201E4BFFF726
:10178000A3FD0022012105201C4BFFF79DFD002237
:10179000002107201A4BFFF797FD002200210820A7
:1017A000174BFFF791FD8023DB00009300220021FF
:1017B0000920134BFFF712FD0022104B00210620D9
:1017C000FFF782FD0420FFF7EFFD0E4900F04CF813
:1017D00001000020FFF794FE02B010BD0080004021
:1017E0003CB0004030B00040002F685900800240FB
:1017F000008C864700C00240001BB70040597307A9
:10180000006CDC0240420F0001480421014B1847E4
:10181000D00F002031150010124A936F9B0815D28B
:101820009066D166002905D0FFE7FFE7FFE7516F1B
:10183000106F704704B580210906C2175140002877
:1018400000D0C84304F05CFE002104BDF0B5146E66
:10185000556E576F166FFFF7E3FF146655665767AF
:101860001667F0BD000000D0114A936F9B0813D299
:1018700010665166002905D0FFE7FFE7FFE7516FCB
:10188000106F704704B5002801D00020C04304F059
:1018900037FE002104BDC046F0B5146E556E576F7B
:1018A000166FFFF7E5FF1466556657671667F0BDBC
:1018B000000000D094464A4A926F9208624601D2D4
:1018C00028E0C046F0B5464E346E756E776F366FC1
:1018D00000F020F89446424A14665566576716672A
:1018E0006246F0BD94463E4A926F9208624601D22B
:1018F00054E0C046F0B53A4E346E756E776F366F71
:1019000000F04CF89446364A1466556657671667D9
:101910006246F0BD002B24DB11D000293EDA00B571
:10192000C943404200D1013100F038F8C943404278
:1019300000D10131DB43524200D1013300BD002A06
:10194000EBD1002801D1002905D00020C90FC9071B
:1019500001D1C043410800B504F0E2FD002200239C
:1019600000BD00B500290ADBDB43524200D1013340
:1019700000F014F8C943404200D1013100BDC94311
:10198000404200D10131DB43524200D1013300F02B
:1019900005F8DB43524200D1013300BD002923D1B9
:1019A000002B18D1002A0CD0BC460D4F38667A6641
:1019B00000210023FFE7FFE7FFE77A6F386F6746F4
:1019C0007047002801D00748010000B504F0A8FDC9
:1019D0000022002300BD02000B0000200021704700
:1019E000000000D0FFFFFFFF002B00D0BFE0130C72
:1019F00028D1002AE7D080B4114F39667A66FFE714
:101A0000FFE730B4040C7B6F396F1B0423433B6644
:101A10007A66FFE7FFE7FFE7C04684B27B6F3D6F62
:101A20001B0423433B667A66FFE7FFE7C0460023BB
:101A30002C042D0C7A6F386F00196941B0BC7047C7
:101A4000000000D0F0B594460025140E01D112021A
:101A50000835140F01D112010435940F01D1920001
:101A60000235D40F01D152000135D40B0134254F7A
:101A70007C66254C3C660E0C93B2FFE7FFE7FFE760
:101A80003C6F6643360C7703BE467343DF0B5B0443
:101A9000C01AB941130C7343DB18C91ACE08664348
:101AA000360CB64493B273431F0F1B01C01AB941E1
:101AB000130C73431F0B1B05C01AB941860D8F020F
:101AC0003E436643360C092D24DB520A7243801ACA
:101AD0007703460A6643360C16235B1BDE40DF4065
:101AE000BF1964466643821B704604350633010005
:101AF000D940A840C01900D30131A24206D2002328
:101B0000F0BD0000000000D0FFFFFFFF121B0130FE
:101B1000F3D3F1E709277F1BFE406446A2B272436C
:101B2000801A00D20139220C7243130C1204821A5B
:101B300099410B007046043513370100F940A84065
:101B4000801900D30131002B02D1A2420AD2F0BD8C
:101B5000013000D30131121BFAD2013BF8D1A2426D
:101B600000D2F0BD013000D30131121BF7E7F0B510
:101B70001C0C00D080E00CB400251C0A04D11B0210
:101B8000160E3343120208351C0B04D11B01160F2D
:101B90003343120104359C0B04D19B00960F334351
:101BA00092000235DC0B02D192185B4101351C001A
:101BB000971864410134464F7C66464C3C660E0CD7
:101BC000FFE7FFE7FFE7C0463C6F6643360C77034D
:101BD000BE4697B27743C01B00D20139C01B00D26A
:101BE00001399FB27743C91BC91B170C77437E0489
:101BF000FF0B801BB941CE086643360C0C2D33DB3E
:101C0000B644120B1F053A431B0B97B27743C01B18
:101C100000D201399FB27743C91B170C77433E04AA
:101C20003F0C801BB941860D8F023E436643292736
:101C30007F1BFE400C3D7746AF40BF1930BCA2B2BF
:101C4000ABB272437343801A9941220C7243130C56
:101C50001204801A994102000B000137001BA941B0
:101C6000F9D2781E0021F0BD0C277F1BFE4077467D
:101C70007F0BAF40FF19E0E700245D1C07D0144F35
:101C80007D663966FFE7FFE7FFE7FFE73C6F95B248
:101C90009EB265436643401BB141150C1E0C654363
:101CA000664336042F0C3E432D04401BB14199423C
:101CB00004D202000B0020000021F0BD01D19042AF
:101CC000F7D3801A994101349942F2D3F6E7000024
:101CD000000000D0FFFFFFFF48404140484018B4DB
:101CE0001B4B5B68FC46019308BD04DF831F00109B
:101CF00018B4174B1B68FC46019308BD00DF8D1F0D
:101D000000109446134A926F920809D2624618B4A2
:101D10000F4BDB68FC46019308BD0CDF4522001029
:101D20000C4AF0B5146E556E576F166F6246FFF78A
:101D3000EEFF084A1466556657671667F0BD18B47B
:101D4000034B9B68FC46019308BD08DFE9200010A7
:101D500080120020000000D0FFB5504042405040AB
:101D600059404B40594000E0FFB5154F4C00640D01
:101D700003D0BC4204D10C0314D80020090D09057E
:101D80005C00640D03D0BC4204D11C030AD80022BD
:101D90001B0D1B0501264B4009D44B4003D58B423C
:101DA00000D18242FFBD9942FCD19042FFBD0B435E
:101DB000DB1803431343F5D0C9434918FFBD0000A6
:101DC000FF07000000B5FFF7CFFF804100BDC04610
:101DD00000B5FFF7C9FF01D9002000BD012000BDFB
:101DE00000B5FFF7B9FF01D9002000BD012000BDFB
:101DF00000B5FFF7B1FF804100BD012040054A005A
:101E0000121804D85A00121801D800207047012077
:101E1000704700000021002805D17047C1174840D5
:101E2000401AFAD0C90713B5064B1B6898470CBC7B
:101E3000441CA2401005120B0349091B0905194354
:101E4000114310BD1C1C00201F04000010B54C00E5
:101E5000620D8023D218DB00D21A5B057E2A10DDCA
:101E60009E3A13DACC170903490819435242D1406C
:101E7000640001341532202A05DAD040084360435B
:101E800010BD002010BD0846604310BDC80FC0182B
:101E9000013810BD18B4044B5B6AFC46019308BDC1
:101EA00024DFF5230010000080120020132370B5FA
:101EB0001D78012D19D014DD1F48FFF731FB0600F6
:101EC0001E48FFF72DFB1E4C80223100200000F041
:101ED00061FB022D2DD01B48FFF71AFB1A4B18602F
:101EE00070BD1A4B164CA364F5E7184B144C2360D5
:101EF0006360A360E36023616361A361E3612362C4
:101F00006362A362E36223636363A363E3632364A3
:101F10006364A364E36423656365A365E365236683
:101F20006366A366E36623676367A367E367A364E7
:101F3000D1E7064BA364CEE75344000053460000AC
:101F4000801200204C3300001C1C0020511F001088
:101F500007B5604601880A0A0230DF2AFAD1C9B201
:101F6000820804D3028840880004104300E000681F
:101F7000014A5050039007BD801200200FB403BCEB
:101F80000CBCF0B50124E407634000E0F0B50C0D93
:101F9000CF0F661E3605891B640503D3C943404233
:101FA00000D30131640D03D0661CF60A07D0E41B90
:101FB00000207F00791C89078912803C24031D0DB5
:101FC000DF0F6E1E36059B1B6D0503D3DB435242AC
:101FD00000D301336D0D03D06E1CF60A07D0ED1B44
:101FE00000227F007B1C9B079B12803D2D032F1B33
:101FF000661B58D4A446202E46DA20371400BC4075
:102000001D00BD40F24033412A4380185941CB0F97
:1020100005D0C943C0430022644250415141624649
:102020004D0D28D10D0D07D100281FD02419404196
:102030004941013A0D0DF9D0640006D3013000D3B7
:102040000131002C01D140084000013A0BD4941C0E
:10205000E40A04D112051144DB071944F0BDD90785
:10206000204B194300E0D9070020F0BD0029DDD145
:10207000002CDBD1F0BD0132C6074008CD07284354
:102080004908002EE1D0D9E73C2E29DA203E40371E
:102090001400BC4000D00124F24014431A00BB409D
:1020A0001C43D317ACE7AC46202F08DA20360400D7
:1020B000B4400D00B540F84039412843A5E73C2F16
:1020C0000CDA203F40360400B44000D00124F84030
:1020D00004430800B1400C43C117EAE7100019009F
:1020E000002494E70000F07FF0B50C0D661E360565
:1020F000891BE60A6405640D02D0651CED0A04D054
:10210000002001210905803C2403A4461C0D671E04
:102110003F05DB1BE70A6405640D02D0651CED0A70
:1021200004D0002201231B05803C24037740644433
:1021300097B484B296B27443070C7E43150C6F4378
:1021400080B26843361802D3012000043F183004DF
:10215000350C00197D41844688B29AB250430C0C6C
:1021600062431F0C7C438EB27E43921902D3012638
:102170003604A4191604170C3618674101BC81B245
:102180009AB25143040C62431B0C5C4380B2584327
:10219000121802D30120000424181004130C401854
:1021A00063412D185E410020474106BC88B293B2BE
:1021B00058430C0C6343120C544389B251435B18CF
:1021C00002D301210904641819041A0C0918624188
:1021D0006D1856410020474118BCF902720D114399
:1021E000F0026A0D1043ED020A0D03D16D19404152
:1021F0004941013B124E9B1B7600B3420ED26D004B
:1022000007D30130002671416646354301D14008AD
:1022100040001B05C918E4072144F0BD0BDA013367
:1022200006D1013004D101314F0D01D04908F2E748
:10223000E1070020F0BD013631050020EBE700008A
:10224000FF030000F0B51C0D671E3F05DB1BE70A0E
:102250006405640D02D0661CF60A04D00022012336
:102260001B05803C2403D0252D060026F6432E6650
:102270001E096E66CE0FF619B44649004F0D02D006
:102280007E1CF60A03D000200021403F3F033E1B86
:10229000B600B444013F7F05C91B49082E6F0136C3
:1022A00076089C02950D25437543ED137543AD13D8
:1022B00001356D10F603761B0CB4CC02450D2C4392
:1022C000A2B2B3B25A43270C7B43350C6F43A4B27E
:1022D0006C431B1902D3012424043F191C041D0C58
:1022E000A4187D4124196D41009A91B2ACB26143AA
:1022F000170C7C432B0C5F4392B25A43A41802D3B1
:1023000001221204BF182204230C52187B41019CA5
:102310006C431B19520ED9010A434401A01A81B221
:10232000B2B2514303145A43360C734387B2774316
:10233000D617D21900277E4136049B191704160CB4
:102340007F185E417316ED18F30100268033754146
:10235000A90F06D16400690AE8055B0A184309D28F
:102360002FE00422944480337541A90AA8059B0AF2
:10237000184326D3404149412404009A019B0D0093
:102380005543641B4343E41A95B286B27543170C58
:102390007E43030C5F4392B25A43B61802D3012224
:1023A0001204BF183204330C52197B4152429C4133
:1023B000002C02D40022013051414008CA071043CA
:1023C000490802B06246D7079210084BD218084B52
:1023D0009A4203D212058918C919F0BD0020002ABB
:1023E00001DC3900F0BD01331905F5E7FD030000FC
:1023F000FE070000002200B5203200F004F80800BB
:1024000000BD000000220B150AD410B5944600F060
:1024100031F81414013400DA0021CB17144C204792
:102420000020002170476244343A0CD40C2A07DAA9
:1024300004009140904052422032D440214310BDCC
:10244000D843D94310BD203207D40C4694405242A1
:1024500020321141D040204310BD0800C91720325E
:1024600003D452422032104110BD1800190010BD93
:10247000272400100A0DCC0F531E1B05C91A520544
:1024800003D3C943404200D30131520D03D0531C42
:10249000DB0A07D0121B00206400611C8907891227
:1024A000803A1203014BD21A70470000FF0300006C
:1024B00051434343C9188C46110C83B24B4310B4AB
:1024C000040C614392B280B2504362431C041B0C63
:1024D000001910BC59411304120CC0185141614439
:1024E00070470000132310B51C781348FFF718F845
:1024F000012C0BD004DD01008022104800F04AF8C6
:102500000F48FFF705F80F4B186010BD0B4C01008A
:102510005422200000F03EF80B4B6365A365E36591
:1025200023666366A366E36623676367A367E3675F
:102530002362E361E4E7C0465346000080130020B5
:102540004C3300001C1C00204D25001007B56046D0
:1025500001880A0A0230DF2AFAD1C9B2820804D3FC
:10256000028840880004104300E00068014A50508F
:10257000039007BD8013002001480421014B184738
:10258000E00F002031150010014B1B6818470000B8
:10259000E00F0020014B5B6818470000E00F0020AF
:1025A0007047C046F8B5DE4657464E464546E0B54C
:1025B00099460D9B0700884693469B0728D00B9BA6
:1025C000002B3CD016000B9C0A9D3619321B013C97
:1025D0004B464146285DB847002CF7D135000D9B8E
:1025E0009B070ED55B46EC1A0C9BA34209D91E0033
:1025F0002A004B46414620200134B8470135B442F9
:10260000F6D32800F0BCBB46B246A946A046F8BDAA
:102610000B9B0C9A934214D213005D460C000B9A4C
:102620009E1A76192A004B46013521002020B84712
:10263000B542F7D10B9BA046002BC4D1E1E71500B2
:10264000CDE75E46002BBED15D46DAE7F0B54F46DA
:10265000D6464646C0B584B09C460EAB1F78129B4A
:102660009146BA460D9C109E119D9B074CD4002D9F
:1026700041D1B44248D20123129F1F40B8460C9B5F
:102680005F1E302303E001343B55A64201D9202CC4
:10269000F9D14346002B00D187E00C9B5F1E30230D
:1026A000A54204D830E001343B55AC422CD0202C5C
:1026B000F9D1129BDB060DD5129B5B0557D4A642C0
:1026C00067D0A54265D00F9B102B53D0022B5BD057
:1026D000202C36D12023129C01930C9B4A46009358
:1026E000039463460295FFF75DFF04B0E0BCBA4671
:1026F000B146A846F0BD0123129A13409846012323
:1027000013422DD1B442BAD3129BDB061ED5129BC5
:102710005B05D8D4002CD2D10F9B102B60D00F9B1F
:10272000022B71D0302301240C9A13705346002BD6
:1027300011D1129B5B0740D52B260C9A631C1655B2
:10274000C9E72300013430260C9AD654202CC1D07E
:102750005346002BEDD02D260C9A631C1655BAE774
:10276000002F34D0013DB44200D288E795E70F9B9B
:10277000102BAFD1129B9B063CD5202CAAD05823FE
:102780000C9A13550134A3E7202CA3D02300013465
:1027900007E0631E012CBFD00F9A102A36D0022A00
:1027A000D1D162260C9AD65492E7129BDB06CDD586
:1027B000129B5B0500D482E785E7129A2300160777
:1027C00000D488E720260C9A0133165583E70C23A2
:1027D00013405F1EBB41ED1AB44200D24FE75CE7E5
:1027E000129B9B060ED478230C9A0224137030237C
:1027F00053709BE7202C00D16CE778230C9A13557B
:10280000013465E75823EFE76033EDE70C9AA61E25
:10281000B618129A920602D55822327093E778229F
:10282000327090E710B5002800D110BD01F0A8FB70
:10283000FBE7C04610B5002803D04A680B681100BA
:10284000984710BDF0B54E46DE4657464546E0B5C2
:1028500095B083468946924698461E9A1F9B100063
:102860001900209EFFF7C9FA002800D0D2E11E9877
:102870001F990122C44B5242FFF7A4FA002800D04E
:1028800001E11E981F990122C04B5242FFF7B0FA96
:10289000002800D0D6E01E981F990022BC4BFFF7FD
:1028A000A7FA002800D0B5E01E981F990022B94B66
:1028B000FFF788FA002800D0ACE01E981F9900228C
:1028C0000023FFF77FFA002800D0D1E000230B930C
:1028D000229B5B0500D406260024302306E006AACE
:1028E000013417321355013E202C01D0092EF6D8A1
:1028F0001E981F99FFF7AAFAA74BF2009B180CCB62
:10290000050008920993FFF789FA02000B001E9850
:102910001F99FFF7E4F9089A099BFFF710FA069050
:102920000791FFF7B7FA0700FFF774FA02000B00F0
:1029300006980799FFF7D3F90022984B0690079164
:10294000FFF756FA002800D1E9E001373800FFF719
:1029500061FA02000B0008980999FFF739FA00287C
:1029600001D000270135002E00D1B7E0069513E015
:10297000172306AA9B180A21380001341D19FEF7F7
:1029800073FF3031297038000A21013EFEF76CFFD9
:10299000092F00D8E1E00700202CE9D1069D202472
:1029A0000CAB0693172706ABFF180DE028000A2191
:1029B000FEF732FF01343031280039550A21FEF785
:1029C0002BFF051E00D1B7E0202CEFD10323229A64
:1029D0001340012B17D1219B002B14D00B9B002BF4
:1029E00000D1E3E0219B013B2193202B0BD9302325
:1029F000219A06E006A9013417310B55944200D301
:102A0000A0E0202CF6D1229B01940393219B0293FA
:102A1000069B21E0229B52460493219B4946039347
:102A200058461E9B1F9C029600930194434600F05B
:102A300043F90400200015B0F0BCBB46B246A946DD
:102A4000A046F0BD229B5B070FD40322544B229972
:102A500001920391219902910093524643464946BF
:102A60005846FFF79FFD0400E4E704224D4BEEE7D4
:102A70001E9A1F9B00200021FFF731F901231E90B1
:102A80001F910B9324E70223229A54461A40229B5B
:102A900006929B0700D1ACE02600434D08942F1FFF
:102AA0003200E87843464946013DD8470136BD42E9
:102AB000F6D1089C069B0434002BBBD05746219AC4
:102AC000E31B9A42B6D9150022004346494620200E
:102AD0000134D847E31BAB42F6D3ABE72800FFF73E
:102AE0009DF902000B001E981F99FFF7F8F82B4B79
:102AF000002206000F00FFF765F90CAB06930028D3
:102B000000D04FE7002230003900244BFFF770F966
:102B1000002800D046E7012301359D4342E700220B
:102B2000069807991D4BFFF74DF9002800D01AE7CA
:102B3000002F59D1013716E70323229A1340012BA6
:102B400000D1A6E0202C00D15DE70B9B002B3AD0F2
:102B50002D23069A1355013455E7069D202C00D1EC
:102B60001DE73023361906E006AA01341732135543
:102B7000202C00D113E7A642F6D12E230CAA013453
:102B8000069293550EE7C046FFFFEFFFFFFFEF7F72
:102B900065CDCD4165CDCDC1086900100000E03F95
:102BA0006866001060660010706600100C23229AA0
:102BB000134257D0219B013B2193A34200D916E732
:102BC000202C00D11FE7229B5B0704D52B23069AFC
:102BD0001355013417E7229B1B0700D413E720236A
:102BE000069A135501340EE7FB0700D4BBE6013704
:102BF000B9E6219B042B00D84EE755464F46043CCE
:102C0000E4182A004346013539002020D847AC4259
:102C1000F7D141E70227229B55461F409B0726D04C
:102C200006975F46234EEC1C2A00B078434649467F
:102C30000135B847013EAC42F6D1069F002F00D1C6
:102C4000F8E65746219AE31B9A4200D8F2E61500AF
:102C500022004346494620200134D847E31BAB42BB
:102C6000F6D3E7E6219BA34200D9C0E6CBE6219B41
:102C7000032BD5D9069754464F46033DED18220045
:102C80004346013439002020D847A542F7D1069F9A
:102C9000C6E7219B002B00D154E70B9B002B85D06E
:102CA000219B013B21939C4200D2A0E6202C00D026
:102CB0004EE7A8E66C660010F0B54546DE4657467E
:102CC0004E46E0B59BB0249C259D8246884693469F
:102CD000994622002B0020002900FFF78EF80028DB
:102CE00000D0C1E00122200029007C4B5242FFF7B6
:102CF0007FF8002800D0B7E0012220002900784B9F
:102D00005242FFF75FF8002800D0ADE00022002318
:102D100020002900FFF756F8002800D0BBE10894F6
:102D20000995089809998023289ADB001A400F9288
:102D30008022289E1201164032000E96289E0F0017
:102D40000A901E4200D0A4E00B00034300D0CBE069
:102D5000002A00D012E232000633269302231340E9
:102D60000C930223134200D00AE2279B042B00D2CB
:102D700015E200270426043B0E93002200232000C6
:102D80002900FFF71FF8002800D0C8E1554B289A0A
:102D9000134004930E9B0393269B0293089B099C6C
:102DA0000093019441464B465A465046FFF74AFD70
:102DB00002002020289B0025034059424B415B42E2
:102DC0001840531C089341464B464530D047FB17EB
:102DD000FC185C40FB0F1F270A93731E0E930AAB6F
:102DE000FF1806E020000A21FEF73EFD0400202D1A
:102DF00008D00A212000FEF737FD01353031795522
:102E0000092CEFD8052306930E9B56460593002305
:102E100004930A3303930A9B4146029312AB009337
:102E200030004B46089A0195FFF710FC0C9B002BD5
:102E300028D05F46279BC41BA34223D982461D008E
:102E40003A194B46414620200134B047A542F7D8F5
:102E500050465946279C421A01320023944200D31F
:102E600095E1013018180DE0289B0094019504931A
:102E7000279B0393269B02934B465A464146504656
:102E8000FFF7E0FC1BB0F0BCBB46B246A946A0462B
:102E9000F0BD01432AD10E9B3200002B00D15DE72B
:102EA0000027269B0026BB4200DD82E10022002392
:102EB00020002900FEF786FF002800D04BE1289B68
:102EC000084A02961A408023DB0013430493279B91
:102ED0000393089B099C00930194CDE7FFFFEF7FCC
:102EE000FFFFEFFFFFF7FFFF06232693B24B7800AB
:102EF000400DC018FEF792FFB04AB14BFEF71FFF1E
:102F0000B04AB14BFEF7F4FE3F03B04B3F0B3B43DF
:102F10000C900D9100220A981900AD4BFEF7DFFED0
:102F2000AC4AAD4BFEF70BFF02000B000C980D995D
:102F3000FEF7DEFEFEF78AFF0700FEF76FFFA74AE7
:102F4000A74B0A900B91FEF7FAFE0022A54BFEF765
:102F5000CFFEFEF77BFFA44A06000A980B99A34B0D
:102F6000FEF7EDFE0A900B913000FEF757FFA04AE6
:102F7000A04BFEF7E4FE02000B000A980B99FEF747
:102F8000AEFE02000B000A900B91FEF7D8FE0C90EB
:102F90000D910A980B9902000B00FEF7A9FE002282
:102FA000109011910C980D99934BFEF7AAFE0022F8
:102FB000924BFEF79DFE02000B000C980D99FEF758
:102FC000A0FE00228E4BFEF793FE02000B000C9831
:102FD0000D99FEF796FE0A9A0B9B0C900D9180219D
:102FE0000020C905FEF77BFE02000B000C980D992E
:102FF000FEF77EFE02000B0010981199FEF781FE8D
:103000000022724BFEF774FE7E4B0022F618330549
:10301000FEF795FE02000B000A900B9108980999A3
:10302000FEF7D0FE002808D00A980B990022734BB7
:10303000FEF767FE0A900B91013F0A990B9A0B006D
:1030400011003A006332C62A12D8022228980426B8
:1030500010400E9A0C90002A26D1279B042B05D9EC
:10306000002800D0A1E0279B043B0E93042642E0F9
:103070000222289810400E9A0C90002A13D1279B08
:10308000052B00D889E0002800D084E0279B052686
:10309000053B0E9332E080231B069C46AC446346FE
:1030A000089409933DE605260B4300D1F9E60898FC
:1030B0000999554A554BFEF793FE002808D0089809
:1030C00009990022524BFEF77DFE002800D0E8E669
:1030D000269B002B34D00F9B002B31D0269B013B2D
:1030E0002693279BB34204D90C9B002B59D0022373
:1030F0000C9300230E93002F00D13EE60A9A0B9BFF
:1031000008980999FEF7FDFD002208900991002317
:1031100020002900FEF756FE002800D136E6089C64
:10312000099D289A80203B4B0006134022000493FF
:103130000E9B0393269B02932B180092019331E67A
:10314000279BB342D5D90C9B002B2AD000230E938A
:1031500002330C93CFE7289B2E4A8020089C099DC0
:103160001A408023DB00134322000493279B0006B0
:1031700003932B180092019302967DE6052695E6AF
:1031800000230E930233002704260C93F5E54B1E13
:103190001B191B1A65E602230C930526AEE70423D0
:1031A000E7E5279B9B1B0E93A5E7022304260C93C0
:1031B000A1E7DB1B5E1E79E601FCFFFFFB799F5058
:1031C0001344D33FB3C8608B288AC63F0000F03F4A
:1031D0000000F83F61436F63A787D23F71A379096D
:1031E0004F930A400000E03F1655B5BBB16B02405B
:1031F000EF39FAFE422EE63F00002C40000024404A
:1032000000001840FF0300002D431CEBE2361A3F7C
:1032100080842E41FFF7FFFFF0B55746DE464E464D
:103220004546E0B5A3B01F002C9B92460C93C94ABB
:10323000C94B8B460B901A60002900D1BFE10023D7
:1032400038789946002800D1C1E1C44B4C46099317
:10325000C34B0E935B460A9308E0220053460A993B
:103260000B9DA84701343878002876D001372528EF
:10327000F3D110239B46083B9946043B9846033BF9
:10328000002602259C463878791C0300203BDBB2DF
:10329000102B03D8099A9B00D3589F460300303B5C
:1032A000092B36D900252A2800D1A7E000230D9349
:1032B0002E283FD00300683BDBB2122B1BD80E9A9E
:1032C0009B00D3589F4663460F001E43DBE70F0069
:1032D0002E43D8E743460F001E43D4E75B460F005A
:1032E0001E43D0E74B460F001E43CCE7802378787F
:1032F0005B001E4301310F00672845D82428ACD954
:103300000300253BDBB2422BA7D896499B00CB5844
:103310009F460025AB005D196D002D1808780F0041
:103320000300303B303D0131092BF3D900230D93CD
:103330002E28BFD13022802052429046C000064342
:1033400078780B0080444246092A00D851E12A28A7
:1033500000D15EE10F000131ACE70A9BA1469B461C
:10336000CA4503D801235B425344994653464A4613
:10337000594600200B9DA847200023B0F0BCBB4657
:10338000B246A946A046F0BD0300693BDBB20F2B55
:1033900000D962E7012199408846734A11408B4663
:1033A000110042460A4200D013E10A2B2FD0072B0E
:1033B00000D052E70C9D01CD002800D134E121233B
:1033C0001E43B0461F260D9A12ABF618A14694462E
:1033D0005946340002E0000920290AD00F26064091
:1033E00032003732092E00D8073A013162540F28D3
:1033F000F1D863464C468B460D9322E10C9B20CBC3
:10340000002D52DB78780C930F0001314EE70C9BB6
:103410000D9904CB90469B46002900D128E14346F4
:1034200018784144002801D100F029FC0D9A9446F7
:103430000A0004E059780133002900D195E19A424D
:10344000F8D163460D934346D31A0F93730500D406
:103450006CE10F9B0D9A934200D90F9202231A0040
:1034600032400C92334200D191E20C930D9BB9464D
:103470001E1943461B1BA84622001F000B9D08E097
:10348000541C53460A99A847385D002800D163E1CF
:1034900022009642F4D145464F4634000C9B002B47
:1034A00000D097E15B460C93DDE602227878164364
:1034B0000F006D420C930131F8E678786C2800D14A
:1034C00059E180235B001E43013114E780239B00F8
:1034D00078781E4301310EE77878682800D150E1F2
:1034E000802301311E4306E7672800D1C2E0472848
:1034F00000D134E1452800D134E107210C9B0D9A1D
:1035000007338B4319000496039502920CC90B985C
:10351000009201930C91220053460A99FFF7CCFBCD
:103520000400A0E6462800D1A8E007210C9B0D9AD4
:1035300007338B4319000496039502920CC90B982C
:10354000009201930C91220053460A99FFF77AF9F1
:10355000040088E619320010F01B00206867001094
:10356000AC670010F867001041900000220053463D
:1035700025200A990B9DA847013474E60C9B04335F
:103580009B46631C9846B60700D4FFE00C9B2200C4
:1035900018780A9953460B9EB0476419012D00D83C
:1035A00049E245460B9EB8460A9F2A00534601351C
:1035B00039002020B047A542F7D1474672E7DB4BE0
:1035C00038780B9300239946002800D03DE600246C
:1035D000C6E66F2855D000D8BCE21023782800D169
:1035E0009EE09E430A239C4600230F930A339B468A
:1035F0004DE000218A00521852000133111818784A
:1036000030390200303A092AF4D90D911F00591CB3
:1036100050E60C9BB87804CB0237D143C9170A4057
:103620000D920C93791C45E610233000984311331A
:103630001843802380463000DB0018401E4200D132
:10364000C0E643460693082305930D9B220004938E
:1036500010230393002302935B4601931AAB00935C
:103660000A9953460B98FEF7F1FF0C950400FAE512
:103670000139D4E680231B011E433EE720231E436D
:1036800053E708239C4600230F9308339B4680236F
:103690003000DB0018401E4200D11AE10D2331003A
:1036A000994380230A009B001A409146194200D09A
:1036B000C3E180230A005B001A4090460C9A043252
:1036C0000F92194200D08FE24B0600D597E10B060E
:1036D00000D4E5E20C9B1B8899464B46002B00D09A
:1036E00005E210339943002800D100E200239846F8
:1036F0000D9B069104935B4603930023059502936B
:103700004346D9E0582808D0622878D102239C4645
:1037100000230F9302339B46B9E720231E43103B3F
:103720009C4600230F9310339B46B0E702231A00F8
:1037300032400C92334200D105E20C934346B94625
:103740000B9E0A9FA8461D1B2200534639000134D8
:10375000B047285D0028F7D145464F469EE68023B6
:103760001B011E4320231E43C7E662460D924246BC
:103770009B1A0F936AE6C0239B00B8781E43F91C7E
:10378000B9E5C023B8781E43F91CB4E5012D00D873
:103790004AE1631E9946A9444B4652462600A1467B
:1037A000BA461C001700A8460B9D32003B000136AC
:1037B00020200A99A847A642F7D13B0057469A46CF
:1037C0004C460C9B320018780A9953460B9D444492
:1037D000A84767E6A0460F9B9D4200D862E62C19D9
:1037E0000B9E4546B8460A9FE41A2A005346013507
:1037F00039002020B047A542F7D1474652E6802342
:103800003200DB001A4090461E4200D1F3E0112145
:103810008E43B4469846802362469B001A409346E6
:1038200062461A4259D180235B001A4091460C9A95
:1038300004320F9262461A4200D0A0E163465B0652
:1038400000D5D4E063461B0600D412E20C9B002294
:103850009B5ED8171918414089B2DA0F0C92002BE1
:1038600000D187E188461F2612ABBB461495F71896
:1038700045464E46E046A14606E028000A21FDF7EF
:10388000F3FF0500202E08D00A212800FDF7ECFFE9
:1038900001363031B955092DEFD84C46C446B146F2
:1038A0005F46149D634606930D9B059504930A237A
:1038B00003930C9B02934B4601931AAB2200009397
:1038C0000A9953460B98FEF7C1FE0F9B04000C9318
:1038D000C9E40C2331009943E3E60822072191460D
:1038E0000C9B07338B4399444A460ACB08000C9241
:1038F000DA0F9346184300D085E0002399464346EB
:10390000002B2FD1002200231092119300231F2699
:10391000994612ABF6185B461495BB46E046370055
:103920000F934E46A146109C119D05E0A125001065
:1039300004000D00202E0CD00A22002320002900B4
:10394000FDF7D0FF01363032BA55002DF0D1092CE9
:10395000EED80F9B109411955F464C46C446B14675
:103960009B46149D634606930D9B059504930A237D
:1039700003935B4602934B4601931AAB22000093DC
:103980000A9953460B98FEF761FE04006BE40F9B07
:103990009D4200D896E18023DB000C930F9B2E19EB
:1039A000F61A43460F930D9BA84699465346BA46CE
:1039B0001F000B9D22003B00013420200A99A847DC
:1039C000B442F7D10F9B454698464B460D933B00BA
:1039D00057469A4643461878002800D162E56B1C8A
:1039E0000F930C9B002B00D1A8E600233DE50C9B18
:1039F0001B78190031E710239E43B4460BE70C9B5C
:103A00001B78994669E6DA17129213924A4010928F
:103A1000129813990A005A401192109A119B121A87
:103A20008B411092119371E70C9B220018780A9930
:103A300053460B9CA047444634E50822072690468F
:103A40000C9B0733B343984442460C921A685B6858
:103A5000149208931300089A134305D11033994325
:103A600000239846002838D161208B0600D54120DC
:103A700000231F2698465A4612ABF61803001892E8
:103A80000F9A0A3BB1461695179419974446664615
:103A900090469B46149F089D159103E007000D007A
:103AA000202C13D03200002338002900FDF71AFF24
:103AB0005B46D2B2D318092A01D8130030334A46E4
:103AC00001341355A845E9D1BE42E7D9189BA04659
:103AD0009B461599169D179C199F0D9B0691049363
:103AE0005B460393002305950293434644E7612018
:103AF0008B0600D541201F2612ABF21803000A3BAB
:103B00000C934B464646A146A8461C005D461491C0
:103B1000BB46170002E00400202E0DD02900200033
:103B2000FDF7A2FE0C9BCB18092901D80B003033FE
:103B30000136BB55AC42EED25F464C46AB461499BB
:103B40004546B046D4E50F9B9D4200D926E7013398
:103B50000F93F3E5102332009A439446692800D06E
:103B6000A2E080233200DB001A4090461E4200D1C2
:103B700051E64CE64346002B00D093E673E60C9BDF
:103B80001B68DA0F002B70D0D9175B184B40984692
:103B90001F2612ABF618A14614955C464546BB4657
:103BA000E04637000C9206E028000A21FDF75CFE93
:103BB0000500202C08D00A212800FDF755FE01340D
:103BC00030313955092DEFD85F46C446A3464C46DF
:103BD000149D0C9A634606930D9B059504930A2346
:103BE000029203935B4667E60C9B1B689846002B8A
:103BF00003D11033994300282DD161208B0600D5C5
:103C000041201F2612ABF61803000A3B4A460C93CC
:103C1000149143463100A846A1465E461400BB46B7
:103C20001D000F0002E00500202C0DD031002800FF
:103C3000FDF71AFE0C9BCB18092901D80B00303375
:103C400001343B55B542EED223005F464C46454613
:103C5000B346994614990D9B069104935B460393D2
:103C60000023059502934B4626E64346002BB1D12F
:103C70008EE70C9B1B68D81719184140EDE580238F
:103C80003200DB001A400F921E420FD002300200B9
:103C900032400F92304219D00023A0460F939AE58C
:103CA0000C9B1B68994618E516009BE402231A003A
:103CB00032400C92334200D08CE5002D00D06DE6EE
:103CC000FFF7F0FB01330F93FFF7D0FB0C93F4E702
:103CD00000B585B0039101210290009303481300C1
:103CE0004A4202A9FFF798FA05B000BD3528001036
:103CF00010B5094A0300146884B0002C08D00122D2
:103D000000910648524203A9A047012004B010BD0B
:103D100000F080F90020F9E7F01B002025280010B2
:103D200000BEFDE77047C04610B5FFF7F9FFC0467B
:103D300070B5FDF74DFC074D074EB54209D2002482
:103D4000013E761BB608013608CD01349847B442CF
:103D5000FAD170BD8C65001090650010030010B59D
:103D6000080011001B68984710BDC046F8B5437D98
:103D700007000D001600002B38D0002A1ADD0B7842
:103D80000A2B18D00020012E09D0012421006B5CE1
:103D900001340A2B1AD0B442F8D1864203DD311A1D
:103DA0003B6828189847AD19013D2B780D3B5A42C6
:103DB00053413B75F8BD037D002BE3D102210E4832
:103DC0003B689847012EEED00120DEE76B1E5B5C5E
:103DD0000D2BE0D0884203DA091A3B68281898476F
:103DE000054802213B6898472000D4E7036811008A
:103DF00028009847DEE7C04658690010F8B50B6800
:103E00000D005A1CCB180A601871802A00D0F8BD2A
:103E10000E4B1C68002C15D00D4E0F1D02E02469BE
:103E2000002C0FD02368002BF9D03368002B01D071
:103E3000A342F4D1200039002A68FFF797FF2469D4
:103E4000002CEFD100232B60E1E7C046E4170020EF
:103E5000EC170020F0B54646D6464F46C0B582B0B6
:103E600090461C0006000D00FDF79EF900232F4A26
:103E700012184B41002B02DA01222D4B52422D49E0
:103E800008008A4602F004FB81466B1C03D1300017
:103E900002F0CCFA0500002C27D0274F274B1C68D6
:103EA000002C18D04346002B21D1254B984602E028
:103EB0002469002C0FD02368002BF9D043461B68DF
:103EC000002B01D09C42F3D120002A003100B847DA
:103ED0002469002CEFD14B46002B23D1280002B0DF
:103EE000E0BCBA46B146A846F0BD164FD6E7144B23
:103EF000984602E02469002CEDD02368002BF9D00D
:103F000043461B68002B01D0A342F3D12A003100A5
:103F10002000B8476B460A222000DA71D91D093A01
:103F2000B847E7E7504602F0E3FAD7E740420F0010
:103F3000FFFFFF7F281000206D3D0010E4170020D8
:103F4000EC1700205D3D00100A4A1368002B05D1D4
:103F50000CE01A001B691032002B07D08342F8D105
:103F6000002902D118691060196170470029FCD03E
:103F70001060FAE7E417002010B500F067FA10BDF2
:103F8000F0B5CE46474680B583B06B460600DD1DD2
:103F90002870FDF709F90023194A12184B41002B2C
:103FA00002DA0122174B524217490800894602F0F3
:103FB0006FFA164B80461C68002C14D0144F02E098
:103FC0002469002C0FD02368002BF9D03B68002B0C
:103FD00001D09C42F4D1200001222900FFF7C6FE47
:103FE0002469002CEFD14346002B05D1300003B0EB
:103FF000C0BCB946B046F0BD484602F079FAF5E7D4
:1040000040420F00FFFFFF7F28100020E417002030
:10401000EC17002070B5040002F008FA012301003B
:10402000050001222000FFF715FF084B1C68002C3B
:1040300006D06368002B05D098472469002CF8D17E
:10404000280070BD2469002CF3D1F9E7E4170020A3
:10405000F0B5CE46474680B5A3B004000E00FDF78C
:10406000A3F80023264A12184B41002B02DA012242
:10407000244B5242244802F00BFA00232200019301
:1040800080463300214801A9FFF722FE204F019B03
:1040900081463C68002B19D0002C2FD01D4E02E029
:1040A0002469002C0FD02368002BF9D03368002B33
:1040B00001D0A342F4D12000019A02A9FFF756FED5
:1040C0002469002CEFD100233C680193002C06D01A
:1040D0006368002B0CD098472469002CF8D1434624
:1040E000002B07D1484623B0C0BCB946B046F0BD4E
:1040F0002469EBE7044802F0FBF9F3E70194EEE7EB
:1041000040420F00FFFFFF7F28100020FD3D001000
:10411000E4170020EC1700200FB400B583B004A909
:1041200001C90191FFF794FF03B008BC04B0184720
:10413000024B1860024B19607047C046841700207C
:104140008817002010B5024B1878FCF717FA10BD3D
:10415000431C0020154B70B51A68002A22D0EFF3DB
:10416000108172B610680028FCD0BFF35F8F00206A
:104170000F4A596010701B68BFF35F8F186081F39E
:104180001088002400250B4E3078FCF7EBF900284E
:1041900004D1002400252900200070BD3078FCF7F0
:1041A000EDF9F8E7FA240025A400ECE7FC1B002059
:1041B000441C0020431C002070B5050000200E00A8
:1041C00001F078FB002834D0002001F089FB0028A2
:1041D0002FD0FCF7E9FF0023174A12184B41002BA0
:1041E00016DB164C200002F053F9002821D00020E5
:1041F00001F060FB00280FD101200021404200F0B7
:1042000089FD03256D42200002F072F9280070BD7F
:1042100001220B4B5242E4E7002001F061FB002831
:10422000EAD029003200002001F064FB051EEAD12B
:10423000E7E703256D42E9E740420F00241C002018
:10424000FFFFFF7F10B5FCF7AFFF00230D4A1218E8
:104250004B41002B02DA01220B4B52420B4802F079
:1042600017F900280CD001200021404200F052FD37
:10427000002001F083FB0028F5D1044802F038F952
:1042800010BDC04640420F00FFFFFF7F241C0020EE
:10429000F8B5CE46474680B505000C00FCF784FF14
:1042A0000023344A12184B41002B02DA0122324B10
:1042B000524232490800884602F0EAF8002803D149
:1042C000C0BCB946B046F8BD002001F0F3FA0028A2
:1042D00048D00026002C41DD294B994613E0A9194E
:1042E000002001F087FB070001200021404200F080
:1042F00011FD002001F042FBFCF756FF204BF619A0
:1043000003C3B4422ADD002001F094FBA71B020086
:10431000B84200DD3A00002AE1D1012000214042EC
:1043200000F0F8FC002001F029FB002001F0C2FAA7
:10433000002813D0002001F07DFB0028E1D1FCF71C
:1043400033FF4B460F000CCB002184460D4812185A
:104350004B419F4202D8D4D19445D2D9404602F075
:10436000C7F8ADE700200021054B03C3404602F02B
:10437000BFF8A5E740420F00FFFFFF7F241C00208D
:104380007812002020A1070030B5002185B0284810
:1043900002F0D6F800281CD1264B1A68002A16D045
:1043A000EFF3108172B610680028FCD0BFF35F8F66
:1043B00001242148596002781B68D2B20470BFF30F
:1043C0005F8F0020186081F31088002A17D005B095
:1043D00030BD01200021404200F09CFC002001F093
:1043E0007FFA0500124802F083F8002DEFD0134B3E
:1043F0001B68002BEBD0124A10689847E7E7FCF7E0
:10440000A9FC0400FCF7D0FEFA2200239200121847
:104410004B41002B02DA01220A4B52420121029148
:1044200000210191084920000091FCF797FCCEE79C
:10443000241C0020FC1B0020441C002084170020AA
:1044400088170020FFFFFF7F55410010D02310B5D3
:104450001B0684B01C68FCF77DFCFCF77DFDA042C8
:1044600002D0002004B010BD284B002100201B7892
:1044700001F0A6FC26480368002B44D00120FCF77D
:1044800001FAFF23234C244920701840FCF78EF8D2
:1044900020780121FCF754F80520FCF777F8002874
:1044A00024D1082200211D48FEF76EF8FCF752FCCB
:1044B0000400FCF779FEFA220023920012184B4107
:1044C000002B02DA0122164B5242012102910021F7
:1044D0000191144920000091FCF740FC0028C0DB4A
:1044E00011480121FFF730FD0120BBE70120FBF758
:1044F000E5FF01000948FCF725FA002205200B49D9
:10450000FCF77EF8ECE7FCF701FAB7E7B86B0010B0
:10451000241C0020431C002089430010FC1B0020A9
:10452000FFFFFF7F55410010F00F002045410010B4
:1045300000487047D4690010004870478069001037
:1045400010B5040016480378002B20D0002C06D1AB
:10455000144B15484380063BFF3B038010BD052CE0
:104560001CD8124BA400E4580F480123811C013CC5
:1045700004E001330A800231142B0CD0E25C002AE3
:10458000F7D1C022DBB25B0092001343E5E71121B3
:1045900000F016F8DAE7CA239B00DEE70020DDE72B
:1045A0002C1C002009040000BC17002068690010C2
:1045B00010B5024800F0F4F810BDC046141C0020ED
:1045C00030B5012900D1BBE0744B01391A781211C2
:1045D00014003034092A00DDB5E00470012900D14F
:1045E000DAE00F221C78224014003034092A00D966
:1045F000ACE04470022900D1CEE05A789446121102
:1046000014003034092A00DDA3E08470032900D1AE
:10461000C2E064460F22224014003034092A00D937
:104620009AE0C470042900D1B6E09A789446121139
:1046300014003034092A00DD91E00471052900D10D
:10464000AAE064460F22224014003034092A00D91F
:1046500088E04471062900D19EE03025AC46DC7824
:1046600022119444092A00DD7FE062468271072905
:1046700000D191E00F22224014003034092A00D9E1
:1046800077E0C471082900D186E03025AC461C795A
:1046900022119444092A00DD6EE062460272092963
:1046A00000D179E00F22224014003034092A67D863
:1046B00044720A2900D16FE03025AC465C792211A2
:1046C0009444092A5FDC624682720B2964D00F226F
:1046D000224014003034092A59D8C4720C295BD006
:1046E0003025AC469C7922119444092A02DD073515
:1046F000AC469444624602730D294DD00F222240ED
:1047000014003034092A01D93732140044730E29B9
:1047100042D0DA7913111C003034092B01DD373314
:104720001C0084730F2937D00F2313401A0037322F
:10473000092B01D830331A00C27310292CD0103045
:104740000023037030BD3732140046E737321400BF
:104750004FE73732140058E73732140061E7373239
:1047600014006AE73732140073E70735AC46944407
:104770007BE73732140084E70735AC4694448CE776
:104780003732140094E70735AC4694449BE7373240
:104790001400C4720C29A3D14018D1E7141C0020C6
:1047A00010B588B004000D2200216846FDF7ECFE2C
:1047B0000D22002104A8FDF7E7FE6A464B23684658
:1047C000137004A900230D2201F07AFE152108229E
:1047D00020006944FDF7DEFE08B010BD7047C046FA
:1047E0000022014B1A707047421C00204B790020B8
:1047F000FF2B0BD18B79002B08D1CB79012B05D165
:10480000082A03D9024B8A7809301A707047C046CB
:10481000421C00200120704710B5012913D1154911
:104820005379107909781B0203430020994200D084
:1048300010BD5378012B08D0022BF9D1642200213E
:104840000020FCF70FFE0120F2E7D17893780902EF
:10485000194380230A005B001A40194206D00A0659
:10486000D20F480A03231940FCF784FE012040427E
:10487000F8E7C046421C002000487047906A0010CC
:104880009446012310B501290AD152780023012A48
:1048900006D162461179527912020A43072A01D0E1
:1048A000180010BDA6336146024A00F0EBFE03007B
:1048B000F6E7C046E869001001230370004870471E
:1048C000B46A00104B780A781B0213438A7810B53B
:1048D00012041A43CB781B0613439622D20093424C
:1048E00000D010BD0022012011004042FCF742FE22
:1048F000F8B500F03BF90C23194DFF22AB670520FA
:104900001849FBF77DFE184C402200212000FDF7DE
:104910003BFE4027002301262121144A667027838D
:10492000A260136063545F31618445396354104A57
:1049300010496360E2602787A1620B606362E262F4
:1049400001F0AEFD80239B052E64EB6490230A4AA0
:104950000120EA508022094B5202DA64F8BDC046B9
:1049600000001150C1040020F017002084001050F6
:10497000000110508000105010D001000020115094
:1049800010B501210520FBF7DBFD10BD10B500229D
:104990000021024800F00AF910BDC046101800209E
:1049A000044B1970002904D080219023024A890207
:1049B000D15070473E1C0020002011500B785B0640
:1049C00000D070474B78052BFBD18A78014B1A60D9
:1049D000F7E7C04600001150F8B5CE464746CB7801
:1049E00080B59B079A0F1000012A58D08C780A795D
:1049F0004B797F211B022140E50913434A00914670
:104A00002C4E52195201B218947001246C4054700B
:104A100000245B055B0DD4701383D076CA00012D92
:104A20002CD0254FD2198F01BC46B4446746BA60DA
:104A3000146000292CD0214AC900891879603F33BD
:104A40009B09022832D09A014B461D4C5B19216804
:104A50005B01F6181B4B8A18F16022609A4227D836
:104A6000194A83064A401343802212061343726890
:104A700013600120C0BCB946B046F8BD134FD2192F
:104A80008F01BC46B4446746BA621460002908D15D
:104A900000236D0175196B600D4BEB60E9E7002099
:104AA000E8E7094AC90089187962C8E7DA01CBE763
:104AB000FCF788FDF017002084001050040010500F
:104AC000F81B0020FF0F1050000010508000105005
:104AD0000001105010B501F0E3FC10BD7F2010B5AF
:104AE00008404000C90940181100044A40018018DC
:104AF0001A0000F05BF8012010BDC046F01700203E
:104B00007F23180000B5084083B00B4204D14B420C
:104B10004B41084A013393668022C9094000064B85
:104B2000401840010021C018120101F001FD03B03E
:104B300000BDC04600201150F01700207F22130056
:104B400010B50B400A4200D110BDC9095B005B18CB
:104B500004485B01C018002300220349C37001F020
:104B6000E7FCF1E7F0170020FFF7FFFF80220A4B78
:104B7000520410B51A60094B09491A6010000B68FD
:104B80009843FBD18022002152010648FDF7FCFC2E
:104B90000922054B5A6710BD00E0004000F00040BC
:104BA00008C000400000105000001150002310B554
:104BB000C3820133828283760161040001F088FCA4
:104BC000002804D080219023074A8902D150200078
:104BD00001F06EFC002802D00123237710BD2000D5
:104BE00001F096FCFAE7C046002011507047C0461D
:104BF0007047C04600207047002070477047C0468D
:104C00007047C0467047C0467047C046024B587850
:104C1000431E9841C0B2704768150020024B1878B7
:104C20004007C00F7047C04668150020F0B5D64653
:104C30004F464646C0B52C4B814698461B788A465F
:104C4000FF2B4BD100293BD0002154222748FDF7F0
:104C50009BFC0022264C274B20001A70FBF756FEC7
:104C6000254B1C60254C2000143CFBF75DFE20000A
:104C700001F098FB224B234D1C60234B002B04D0EA
:104C80002800FFF719FE214B186000242B78204FD5
:104C90001E4E0DE0336862019B18002B10D05B683C
:104CA000002B0DD0984701342B78E4B2A34209D3EE
:104CB000A342EFD8E31A5B01DB195B68002BF1D14B
:104CC00000200CE042464B46514648461370FFF721
:104CD0000FFE0028F4D04846FFF752FE0120E0BC4A
:104CE000BA46B146A846F0BD241000206815002041
:104CF000601500203F1C0020BC1500201C10002067
:104D0000C01500203D1C0020B94800108014002070
:104D10007C6B0010F0B5DE4657464E464546E0B582
:104D2000C84B91B003931B78FF2B00D142E1C64BD7
:104D3000C64E1F00C64B0DAC0293C64B019335689F
:104D40006A69EFF3108172B61368002BFCD0BFF3D1
:104D50005F8FA9612800210001F05AF96A69AB69E7
:104D6000BFF35F8F0021116083F31088002800D10A
:104D700020E16378082BE2D89B00FB589F466368CC
:104D8000002BDCD0A0689847D9E77F222179B04D6D
:104D90000A405300EB189846C80980444046012356
:104DA000303005799D430571057903339D430571C5
:104DB000002A00D105E14346A74A1B7D12789342A1
:104DC00000D3F5E0A54A5B011568ED18002D00D170
:104DD000F0E0A36862792078AD69A847AFE7A04BFF
:104DE0001A78002A00D1E5E01A78013A1A701B7887
:104DF000002BA4D10122964D01212B7804201343CE
:104E00002B703423EA5C8A43EA54EA5C8243EA5416
:104E10000133EA5C8A43EA54EA5C8243EA54237829
:104E200000209B4600F088FC602223791A40602A0B
:104E300000D1F1E0402A00D1F7E0DB06DB0E012BC8
:104E400000D115E1022B00D1CAE0002B00D0E3E035
:104E5000202A00D111E2002A00D0DDE06379092B7D
:104E600000D9D9E07F4A9B00D3589F46784D2B78D4
:104E7000DB0700D463E7FFF7C7FE60E7029BDB7840
:104E8000DB0700D45BE76068FFF7B2FE57E7704DC1
:104E90002B78DB0700D452E728780007C00FFFF714
:104EA000B1FE4CE723786B4A994693466A4B6B4AAE
:104EB000984692463A00002547461B78B0464E4633
:104EC00091460EE053461B686A019B18002B00D1E7
:104ED0007DE0DB683000984701353B78EDB2AB42AE
:104EE0000CD3AB42EED8EB1A5B015B44DB683000BD
:104EF000984701353B78EDB2AB42F2D2544D542283
:104F000000212800FDF740FB1022FF21281DFDF79E
:104F10003BFB28002022FF21143046464F46FDF778
:104F200033FB00F0FFFB2379AB7008E723784B4A93
:104F30009946494B924698463200BB464E4600255C
:104F4000474691461B780DE053461B686A019B1843
:104F5000002B40D0DB683000984701353B78EDB23C
:104F6000AB420DD39D42EFD3019AEB1A5B01D318EC
:104F7000DB683000984701353B78EDB2AB42F1D2A7
:104F8000029D542200212800FDF7FEFA1022FF2185
:104F90003548FDF7F9FA28002022FF2114304E464B
:104FA0005F46FDF7F1FA00F0BDFBFFF729FEC6E60C
:104FB000934213D011B0F0BCBB46B246A946A046FE
:104FC000F0BDA3686279207800F0CAFBB7E64646D8
:104FD0004F461F4DA5E74E465F46E4E71D4DF8E6F8
:104FE0007023217A0B4217D1C80982460F330B4038
:104FF0005B0098461848EB1853441B7D00788342A9
:1050000064D216485B01006881469944002A00D1A9
:1050100055E14B46002B61D120780021FFF770FD50
:1050200080212078FFF76CFD89E6104800F084FBB2
:10503000012158460EAAFFF723FC002800D07EE687
:10504000EAE7C04624100020D46A0010C0150020F2
:10505000681500207C6B00103D1C0020801400208F
:105060003F1C0020F86A00106C15002081480010D9
:10507000237A22890F2BCFD8FF231340D14AEB1874
:105080001B791278934234D3C6D1CF4D686900F0B2
:1050900053FB012158466B690EAA9847002800D09F
:1050A0004DE66022150023791D401A42B4D1637980
:1050B0000A3B012BB0D800F03FFB63790A2B00D1EB
:1050C0008AE158460EA900F0C7FA38E6834200D0BC
:1050D000F0E0BD4B9946002A00D1F0E04B465869FC
:1050E00000F02AFB4B46012158465B690EAA9847FF
:1050F000A3E7B64A5B011568ED18002DC6D18BE712
:10510000A37999466B789945DBD06B78002B00D05A
:105110002CE14B466B70002B00D124E1484601384E
:10512000C0B2FFF709FA002800D174E14378079371
:10513000022B00D06FE10122C179B1468B114911D8
:1051400013400A40302112015B0113432A78A8461C
:105150008A4313432B7009239A4682445646BA4623
:10516000C37882781B021343C3180593954B0493AD
:10517000954B0893954B0993954B0A93059BB34226
:1051800000D84BE1737801220B2B03D13378F278EE
:10519000F6187378042B00D03AE1059B00279B1B7F
:1051A0009BB20693049B0B921D7819E0099A7B0130
:1051B0001568ED18002D00D12AE1310058462B6901
:1051C000069A98478446082803D9069A824200D353
:1051D0000BE1049B01371D78FFB2BD4200D217E1FD
:1051E000BD42E3D8089B7D1B6D015D19E5E76B7837
:1051F0000CAA02321370584601230EA900F042FA9D
:105200009DE5E088030AC0B20F2B00D904E771497D
:105210009A008A5897460EA800F094FA5846A17949
:10522000FFF7B4FB02222B7813432B7087E5E3884A
:10523000012B00D0F0E608222B78584693430EA9A4
:105240002B7000F009FA7AE5022029780CAB9A1C41
:105250008B068908DB0F01400B431380584602235D
:105260000EA900F00FFA6AE5E388012B00D0D3E61F
:1052700008222B7813432B7023E7237A22890F2BE4
:1052800000D9C9E6FF2313404E4AEB181B79127868
:10529000934228D24D4A5B011568ED18002D00D1CC
:1052A000BAE6686900F048FA012158466B690EAA0F
:1052B0009847C2E6002A00D0AEE6002399466279FC
:1052C0000220130004928343012B11D0002A00D046
:1052D000A2E62B004344534430331B790CAA9B07AE
:1052E000DB0F0232B9E7934200D095E6364DD8E79E
:1052F000E388002B12D1039B1878049B012B23D049
:10530000FFF7FEFB43460221EB18534430331A7972
:105310000A4301211A711A790A431A714B46002B6C
:1053200000D10CE5586900F007FA4B4601215B6992
:105330000EAA58469847002000F0FEF93523EB5C92
:10534000DB0700D5FBE4BCE6FFF7F8FB4346022190
:10535000EB18534430331A798A431A711A79049935
:105360008A431A71DAE7FFF74BFCAAE60021584698
:10537000FFF716FB5846FFF7ADFB00229246124A94
:10538000AB780592114A049306922A000D4B5546BC
:10539000984692461B780EE0069B6A011B689B1894
:1053A000002B54D0DB6858469847434601351B789C
:1053B000EDB2AB4237D3AB42EED8059AEB1A5B01A4
:1053C000D318EFE73D1C00207C6B001080140020F8
:1053D0007C150020206B00100CAB9A1C5846012352
:1053E0000EA9157000F04EF9A9E40B9A012A4CD0D1
:1053F000002A3CD00023B07804E00133DBB20F7107
:10540000934234D2C118C9B241440D79FF2DF4D072
:105410004E464546574600236B70FDE54E465746BF
:10542000FFF7ECFB4DE65546542200212800FDF71E
:10543000ABF81022FF21281DFDF7A6F82800202236
:10544000FF211430FDF7A0F8049BAB7061E65546D0
:10545000FAE7FFF711FA021E00D1DDE5D378917863
:105460001B020B4358460EA900F00CF9E5E5654612
:105470003B0031002A000A9800F046FD049B761993
:105480001B78BB4200D379E6C2E7174B29699942E2
:10549000B0D1079AAEE7FFF7ADFB021E00D1BBE526
:1054A000584613780EA900F0EDF8C6E52189FFF7FC
:1054B00047F8021EF4D1AFE5022B0FD0FFF79CFB9B
:1054C000021ECBD1A8E5FFF733F8021E00D1A3E5F9
:1054D000122358460EA900F0D5F8AEE5FFF72CF8D8
:1054E000021EBBD198E5C046315B0010F0B54F46B7
:1054F0004646D646C0B50C0016001F0082B0002AF2
:105500003AD0702398461D4B002599461C4B9A466D
:105510001AE04B461B78200001935346997800F01F
:10552000B9FC00281CD021000198FFF755FA00288B
:1055300016D0A378DA09012A19D00A9A0135137016
:10554000B54219DA2378E4186378052B08D1E3789B
:105550009B079B0FBB4203D14246A3781A42D8D087
:10556000002002B0E0BCBA46B146A846F0BD0B9A96
:1055700001351370B542E5DB0120F2E7241000206D
:1055800068150020702270B58B780C001A4201D08B
:10559000002070BD064B20001D78064B997800F066
:1055A00079FC0028F4D021002800FFF715FAF0E775
:1055B00024100020681500207F20074B10B51A68C2
:1055C0000840CB0934334000C018044B1100C01808
:1055D00000F01CFC10BDC046BC1500206815002062
:1055E0007F20074B10B51A680840CB0934334000C0
:1055F000C018044B1100C01800F030FC10BDC046AC
:10560000BC1500206815002070B57F24C8098446A9
:105610000C400F4864000419644430342079C007FA
:1056200001D5002070BD0B48012500788446207903
:10563000284320716046FFF751FA0028F2D1012279
:105640002379934323712379033293432371E8E74A
:10565000681500202410002070B5094C06000822AF
:1056600020000D00FCF796FF00238021E360A3607B
:105670002B783000994300220023FFF7C5FF70BD4F
:1056800048150020F0B5C646244C17008046082275
:10569000200000B50D001E00FCF77CFF0023A76072
:1056A000E381EB79AA791B0213431A1CB34200D998
:1056B000321C96B2A281002B0CD0002E15D0002FE8
:1056C0002AD0402E1AD8237896B27F2B1BD80021DF
:1056D000134A0EE080212B78002299434046002394
:1056E000FFF792FF80BCB846F0BD7F2300222178EF
:1056F000994333004046FFF787FFF3E740222378C2
:1057000096B27F2BE3D9064C320039002000FCF71B
:1057100041FF80212200ECE70020E3E7481500204C
:105720000815002010B5142200210248FCF72CFFB8
:1057300010BDC04648150020014B18617047C04697
:105740004815002010B5054C010008222000FCF788
:1057500021FF0023A360E36010BDC0464815002070
:1057600070B5374C1D0023780600DA09C9098A4252
:1057700010D00020002D00D070BD21003000FFF7B8
:105780001DF92369002B03D0220003213000984724
:105790000120F1E77F2B06D8A0680028ECD02A0072
:1057A0002849FCF7F7FEE289A1685219E38892B212
:1057B0004919E281A160934214D03F2D12D9A389E7
:1057C000981A051C80B2402828D82078ADB27F28CE
:1057D00026D800219A4230D01A4A2B003000FFF719
:1057E00013FFC9E72369002B05D0220002213000F6
:1057F0009847002808D08021237800229943300060
:105800000023FFF701FFB7E700213000FFF778F929
:1058100030008021FFF774F90120ADE74025D4E77F
:105820009A4207D0074C2A002000FCF7B3FE8021E3
:105830002200D2E780210022CFE70022CDE7C04638
:10584000481500200815002070B50400FFF7DEF9A8
:10585000002800D170BDFFF7E1F90028FAD1C82374
:105860006343124A2500D418E1780029F2D010339E
:105870009E18300000F0B6FB3F28EBD90020E178FD
:10588000FFF79AFE0028E5D0300000F0ABFBE1788E
:105890003F2807D9064BEA01D21800204023FFF722
:1058A000B3FED7E70020FFF79BFED3E730100020C0
:1058B0008414002010B50400FFF7A8F9002801D1D6
:1058C000002010BDFFF7AAF90028F9D1C8226243D1
:1058D000024B01309B181B791840F2E73010002072
:1058E000C82310B543430248181800F05DFB10BDF3
:1058F00040100020F8B5C82343431D4D1033EE1867
:10590000802304005B029A4200D31A4A300092B20C
:1059100000F0CCFB0700FFF779F9002801D138002F
:10592000F8BDFFF77BF90028F9D1C8236343ED18D0
:10593000EB78002BF3D0300000F054FB3F28EED979
:105940000020E978FFF738FE0028E8D0300000F0AA
:1059500049FBE9783F2807D9074BE201D21800201C
:105960004023FFF751FEDAE70020FFF739FED6E7C4
:1059700030100020FFFF000084140020F8B5040060
:10598000FFF744F9002801D10020F8BDFFF746F9E0
:105990000028F9D1C82325005D432B00134E243382
:1059A000F718380000F000FB0028EDD07519002032
:1059B000A978FFF701FE0028E6D00D4AE3019C1804
:1059C00021004022380000F071FBA9780300051E79
:1059D00007D022000020FFF717FE0028D4D02800AF
:1059E000D3E70020FFF7FCFDCEE7C04630100020D3
:1059F000C414002070B5C82444430C4B0500E418BF
:105A000080235B029A4200D3094A200092B200F040
:105A100015FC0600200000F0C7FA3F2801D830002E
:105A200070BD2800FFF7AAFFF9E7C0465410002018
:105A3000FFFF0000C82310B543430248181800F0C8
:105A4000D1FA10BD54100020F0B50025184C83B0D9
:105A5000C82200212000FCF797FD164B21001D7085
:105A6000FF236371E1235B02A3602000082340222F
:105A7000A37338310095073B103000F05FFA270020
:105A80000123210020002600402278310093B837FE
:105A9000243000F053FAC0363800FAF737FF3000F0
:105AA000FAF734FFE56127622663656303B0F0BD52
:105AB00030100020041500200A4B196B1A6A0029C7
:105AC0000CD0002A07D00022DA615A631A63002240
:105AD0001A62012070475A631A63FAE7002AF8D065
